:020000040800F2
:10000000585F002085020008FB510008C90A00085B
:10001000F9510008B9080008155E0008000000004A
:10002000000000000000000000000000ED010008DA
:10003000BB0800080000000031020008155C000841
:100040009F0200089F0200089F0200084D5500080B
:100050009F0200089F0200089F0200089F020008FC
:100060009F0200089F0200089F0200089F020008EC
:100070009F0200089F0200089F0200089F020008DC
:100080009F0200089F0200089F0200089F020008CC
:100090009F0200089F0200089F0200089F020008BC
:1000A0009F0200089F0200089F0200089F020008AC
:1000B0009F0200089F0200089F0200089F0200089C
:1000C0009F0200089F0200089F0200089F0200088C
:1000D0009F020008795C00089F0200089F02000848
:1000E0009F0200089F0200089F0200089F0200086C
:1000F0009F0200089F0200089F0200089F0200085C
:100100009F0200089F0200089F0200089F0200084B
:100110009F0200089F0200089F0200089F0200083B
:100120009F0200089F0200089F0200089F0200082B
:1001300000F002F800F04BF80AA090E8000C8244AE
:100140008344AAF10107DA4501D100F040F8AFF28B
:10015000090EBAE80F0013F0010F18BFFB1A43F0A5
:100160000103184794A70000B4A70000103A24BF69
:1001700078C878C1FAD8520724BF30C830C144BF0C
:1001800004680C607047000000230024002500264E
:10019000103A28BF78C1FBD8520728BF30C148BFEA
:1001A0000B607047642900F0D980752900F0D68073
:1001B000782900F00F81632900F0BD82732900F0D7
:1001C000C282002070471FB51FBD10B510BD00F0E2
:1001D00029FB1146FFF7F7FF05F0E2FE00F047FBB1
:1001E00003B4FFF7F2FF03BC05F015FE224B1968BC
:1001F0000868B0E8F00F80F30988BFF36F8F4FF005
:10020000000080F311884EF00D0E704700000000D2
:1002100006480068006880F3088862B661B6BFF3DC
:100220004F8FBFF36F8F00DF00BF00BF08ED00E00E
:10023000EFF30980BFF36F8F0F4B1A6820E9F00FBF
:10024000106008B54FF0500080F31188BFF34F8F56
:10025000BFF36F8F07F04EFC4FF0000080F3118862
:10026000BDE8084019680868B0E8F00F80F3098815
:10027000BFF36F8F704700BF58000020EFF3058079
:10028000704700000948804709480047FEE7FEE73D
:10029000FEE7FEE7FEE7FEE7FEE7FEE7FEE7FEE736
:1002A00004480549054A064B70470000295C0008D0
:1002B0003101000858590020585F0020585B002089
:1002C000585B0020704700000FB4044910B503AA22
:1002D000029800F03DFA10BC5DF814FB20000020ED
:1002E0000FB41CB5074B06AA7B44694600900598DD
:1002F00000F0FFF90020694600F00EFA1CBC5DF822
:1003000014FB00002D04000070B50C460546012AC0
:1003100005D02878800600D5EA69002302E0012391
:1003200005E05B1C934202D2E05C0028F9D1A86989
:10033000E618C01AA861286A184428622846AFF354
:10034000008004E0D5E9012114F8010B9047B44284
:10035000F8D32846AFF3008070BD00002DE9F041CE
:100360000646002410687529314616A510D0AFF353
:100370000080002802DA404213A507E031688A07AE
:1003800001D512A502E0490704D511A5012401E019
:10039000AFF3008000210A2206F1240709E0B0FB38
:1003A000F2FCB0FBF2F302FB1C003030785418462C
:1003B000491C0028F3D123462A463046BDE8F041C7
:1003C00000F039B9000000002D0000002B000000F3
:1003D0002000000070B504460D4621461068AFF3BA
:1003E00000802188090502D50F4A7A4402E00E4AAE
:1003F0007A440E32002104F1240305E000F00F06D8
:100400000009965D5E54491C0028F7D1207800232E
:10041000000704D5702D02D009B102231132204605
:10042000BDE8704000F007B9D0A400002DE9F0410C
:100430000F4604460020DFF88480F84420622046FE
:10044000E168884790B3252806D0D4E90121904778
:10045000206A401C2062F2E700252046E1688847B8
:100460002028064608DB312E06D208EB060010F8DD
:10047000200C08B10543F0E7A80701D525F00405D5
:10048000A6B1A6F14100192802D8203645F400652E
:100490003A46314620462560FFF784FE48B10128E0
:1004A00005D0FF1D27F007070837C8E703E03F1D09
:1004B000C5E73046C9E7206ABDE8F081A8A400007E
:1004C00040EA0103024630B59B0710D14FF00134DA
:1004D00000E008C208C91D1B9D4315EAC41FF8D0DF
:1004E00013F0FF0102F8011B0DD01B0AF8E711F809
:1004F000013B002B02F8013B05D011F8013B002B1A
:1005000002F8013BF3D130BD10B5431C02E010F8F6
:10051000011B71B18107FAD14FF0013202C88C1A68
:100520008C4314EAC211F9D0C01A0A0603D0C01EC7
:1005300010BDC01A10BD0A0401D0801E10BD0902F2
:10054000FCD0401E10BD032A40F2308010F0030C96
:1005500000F0158011F8013BBCF1020F624498BF16
:1005600011F801CB00F8013B38BF11F8013BA2F1B3
:10057000040298BF00F801CB38BF00F8013B11F02E
:10058000030300F0F780083AC0F0088051F8043BFC
:10059000083A51F804CBA0E80810F5E7121D5CBF3B
:1005A00051F8043B40F8043BAFF30080D20724BF6E
:1005B00011F8013B11F801CB48BF11F8012B24BF02
:1005C00000F8013B00F801CB48BF00F8012B704751
:1005D00002F0FF0343EA032242EA024200F0FEB8BF
:1005E0004FF0000200B5134694469646203922BFCC
:1005F000A0E80C50A0E80C50B1F12001BFF4F7AF17
:10060000090728BFA0E80C5048BF0CC05DF804EBF8
:10061000890028BF40F8042B08BF704748BF20F866
:10062000022B11F0804F18BF00F8012B7047704764
:100630007047704770472DE9F0470D46994692463E
:10064000044600F124080168880604D5E06921F019
:100650001001216000E00120A84201DD471B00E0FD
:100660000027A1697A1902EB0900081AA061207815
:10067000C00602D42046AFF30080002608E0D4E98B
:1006800001211AF806009047206A401C761C20625F
:100690004E45F4DB2078C0060AD52046AFF3008033
:1006A00006E0D4E9012130209047206A401C2062F6
:1006B000381EA7F10107F4DC07E0D4E9012118F89E
:1006C00005009047206A401C2062281EA5F1010504
:1006D000F3DC2046AFF300802078000602D502202C
:1006E000BDE8F0870120FBE701694A1C0261087838
:1006F000704700B58FB0CDE9013100210591054962
:100700007944CDE9031011466846FFF78FFE0FB01C
:1007100000BD0000E5FFFFFF0A6802F8010B0A6058
:10072000704710B5436913B1AFF3008001E0FFF7E4
:10073000EBFD012010BD127800F124010A700022A7
:100740004A700122EDE711684FF0FF32E9E700003F
:10075000074B70B50D467B44FFF7CBFF0446284698
:1007600000F05CF810B14FF0FF3070BD204670BD56
:100770000B58000010B5203AC0F00B80B1E81850BB
:10078000203AA0E81850B1E81850A0E81850BFF47B
:10079000F5AF5FEA027C24BFB1E81850A0E818501A
:1007A00044BF18C918C0BDE810405FEA827C24BF6E
:1007B00051F8043B40F8043B08BF7047D20728BFFC
:1007C00031F8023B48BF11F8012B28BF20F8023B4B
:1007D00048BF00F8012B70474FF000020429C0F019
:1007E000128010F0030C3FF4FDAECCF1040CBCF110
:1007F000020F18BF00F8012BA8BF20F8022BA1EBB5
:100800000C01FFF7EFBE5FEAC17C24BF00F8012BAB
:1008100000F8012B48BF00F8012B7047007B00F067
:1008200080007047754600F029F8AE46050069461D
:10083000534620F00700854618B020B5FFF730FD7D
:10084000BDE820404FF000064FF000074FF00008D1
:100850004FF0000B21F00701AC46ACE8C009ACE852
:10086000C009ACE8C009ACE8C0098D467047044631
:10087000AFF300802046FFF7B3FC0000004870474C
:10088000F458002010B5012004F012FDBDE810401E
:10089000002004F00DBD000008B502490844009096
:1008A000008808BD006C004008B5024A1044009062
:1008B000016008BD006C0040FEE77047F0B5CC78E1
:1008C000002204F00F03E40601D58C7823430C7852
:1008D0004FF00F0C14F0FF0F4FF0010E1BD0056806
:1008E0000E880EFA02F42640A64210D196000CFAA9
:1008F00006F725EA070703FA06F5CE783D43282ECA
:1009000002D0482E02D002E0446100E00461521C93
:10091000082AE5D305600A88FF2A1CD9446800220A
:1009200002F108060EFA06F50E882E40AE420ED1F0
:1009300096000CFA06F7BC4303FA06F7CE783C4360
:10094000282E00D14561CE78482E00D10561521C79
:10095000082AE5D34460F0BDF0B5144C002801DA54
:10096000E36900E06368450D2E0185B2C0F30157CD
:10097000B540C0F30342032F05D0C6020AD50326B3
:100980009640B34307E023F07062636823F070631E
:10099000636002E0AB4343F0706201B12A43002878
:1009A00001DAE261F0BD6260F0BD000000000140CC
:1009B0000246002092680A4200D00120704741613F
:1009C00070470161704700002DE9F047824605F04D
:1009D00043F8054605F008F84FF400060446B54212
:1009E00002DA05F039F80546B44202DA04F0FCFFF9
:1009F00004463048304E854201D9054602E0B542F2
:100A000000DD35464FF07F51284608F0F7FADFF851
:100A1000AC800546404501D385F00040B1463146E3
:100A200008F020FA08F0FEF90A26B0FBF6F106FB02
:100A3000110129B1B0FBF6F0401C00EB8000400032
:100A40001F4F00210122396079603981454501D26B
:100A50003A7000E039703A70010C7970010AB9708F
:100A6000F870444501D3002402E04C4500DD4C46BB
:100A70004946204608F0F6F908F0D4F9B0FBF6F044
:100A800000EB80004000010A397178713968CAF8BA
:100A90000010B9880B4CAAF804104FF400612046EE
:100AA000FFF78FFFA1142046FFF78BFF0020BDE862
:100AB000F08700000000A0C10000C8420000808054
:100AC000E400002000100140FEE7000002494CF65F
:100AD000CC400860704700000030004000F014B8BF
:100AE00070B504460D4645F2555000F021F82046F9
:100AF00000F012F8284600F015F800F005F8BDE8FF
:100B00007040FFF7E3BF000002494AF6AA200860E0
:100B10007047000000300040014948607047000005
:100B200000300040014988607047000000300040FC
:100B300001490860704700000030004081070CD177
:100B40006421B0FBF1F201FB120141B94FF4C8710D
:100B5000B0FBF1F201FB120008B100207047012048
:100B6000704700002DE9F0431C4F064600243888EA
:100B70007D884543B888A0F5D041043902D1B879C1
:100B800001280CD00021084604F056F804F0EEFAD3
:100B900013494FF480774B15124A80201AE0002049
:100BA000B8714FF02A08A7F80A804FF02B09A7F870
:100BB0000C90014604F040F80120B871A7F80A90A3
:100BC000A7F80C80E2E70F614B611660486108618D
:100BD0000B61641CAC42F6D3BDE8F083CC0000206E
:100BE000001001400C0C01402DE9F04F4A492A2326
:100BF0002B24898845F2105A4FF4305B4FF4285E5D
:100C00004FF448754FF0F00C49F241394FF4A0779A
:100C100045F210364FF4F07280B13F484FF00108B2
:100C2000494580F806800780A0F802C001D0B14293
:100C30003ED12C2505814381848157E036484FF011
:100C40000008494580F80680A0F800C0478006D01B
:100C5000A1F5D04CBCF1040C01D0B1420CD12C2533
:100C600005814381A1F5D0438481043B01D0B14289
:100C700044D10780428041E0514507D1A0F808B037
:100C8000A0F80AE04FF42C5181810EE0A1F5C8567E
:100C9000633E06D0222101812021418121218181D1
:100CA0002CE02C210181448183810280458025E054
:100CB000A1F5D04CBCF1040C09D051450BD1A0F8E2
:100CC00008B0A0F80AE04FF42C53838121E02C25D2
:100CD0000581448109E0A1F5C85CBCF1630C12D028
:100CE000222303812123438120238381A1F5D04343
:100CF000043B01D0B14201D102804780BDE8F04FF2
:100D0000002003F01FBE4FF02C0CA0F808C0438158
:100D1000848105804280E9E7CC0000202DE9FE4F68
:100D20000026A2EB000882465F1A701E35468946EF
:100D3000B8F1000F02DD4FF0010102E003D14FF0E6
:100D40000001019102E0C8F100080190002F02DDCE
:100D50004FF0010002E003D14FF00000009002E0EC
:100D6000C7F1000700904046B84501DD044600E0A9
:100D70003C46601C4FF0000B029015E01FFA89F111
:100D80001FFA8AF000F016F846443D44A64202DD00
:100D90000199361B8A44A54202DD00992D1B894426
:100DA0000BF101001FFA80FB02998B45E6DDBDE8DF
:100DB000FE8F000000B503F03FFF04F0D7F90748AD
:100DC0004FF48071016141154161054A054B12885C
:100DD0001A60802242610261016100BD0010014081
:100DE000140000200C0C01402DE9F74F05468F48F8
:100DF00081B0DFF83CA2818802982F0A00F0FF0939
:100E00004FEA1028E8B200908848A1F513424FF449
:100E1000807B40894FF40076413A17D0834CA1F58E
:100E2000A642103A12D0B2F5007236D02246A1F591
:100E3000C85793791288521B521E633F63D0A1F5A5
:100E4000D047043F7ED0012B7DD0D1E004F07CF967
:100E5000784CC4F810B06661CAF8007080256561EE
:100E600025612661C4F810B066610098CAF80000D8
:100E70006561256126616D48808904F065F9C4F8D3
:100E800010B066615146CAF800806561256126612F
:100E9000C4F810B06661484631E004F055F9654C7D
:100EA000C4F810B06661CAF80070802565612561DC
:100EB00026615E484089401C80B204F045F9C4F8C0
:100EC00010B066610098CAF800006561256126616E
:100ED0005648808904F038F9C4F810B06661CAF841
:100EE000008065612561266150488089401C80B280
:100EF00004F02AF9C4F810B066614846514608600B
:100F00006561256171E003B995B204F01DF9494CA2
:100F1000C4F810B06661280ACAF80000802767612B
:100F200027612661C4F810B06661E9B2CAF8001002
:100F3000676127612661C4F810B06661CAF80000D5
:100F4000676101E024E052E027612661C4F810B037
:100F50006661CAF80010676127612661334880899D
:100F600004F0F2F8C4F810B066615146CAF8008087
:100F7000676127612661C4F810B06661CAF8009005
:100F8000676127612661C4F810B06661404621E0C0
:100F9000012B00D195B204F0D7F8264CC4F810B05C
:100FA0006661290ACAF800108027676127612661F7
:100FB000C4F810B06661E9B2CAF800106761276131
:100FC00026611A48808904F0BFF8C4F810B0666141
:100FD000404651460860676127612661C4F810B039
:100FE0006661C1F8009067612761266107E095B2EC
:100FF000294604F0C1F8A089029904F0BDF80D4813
:10100000C0F814B0466109490989CAF80010802166
:10101000416101610661C0F810B04661039BCAF8E6
:101020000030416101610661BDE8FF8FCC00002006
:101030000C0C0140001001402DE9F84F012119204E
:1010400004F02AF90121FE48FFF786FC4FF4F8640A
:10105000ADF8004010208DF80300DFF8E88303208E
:101060008DF80200694645464046FFF727FC2146B9
:101070002846FFF7A6FCF44D4FF6FF74ADF800408C
:1010800069462846FFF71AFC21462846FFF799FCD7
:10109000322004F0E5FE0121002004F06DF832203A
:1010A00004F0DEFE002003F0F7FBE84C49F2413784
:1010B00046F60409A08045F2103A45F21055FF2883
:1010C00006D3A0F57F41FF3902D0B0F5134F70D1A0
:1010D000D32004F039F803F0A7FB03F0A5FB03F0DD
:1010E000A3FB4FF6FF7606EA0020A08003F09CFBEE
:1010F000A1880843A080B8425BD0BF2004F024F848
:1011000003F092FB03F090FB03F08EFB03F08CFBEB
:1011100006EA0020A08003F087FBA1880843A08096
:10112000484546D0D42004F00FF803F07DFB03F0CF
:101130007BFB03F079FB06EA0020A08003F074FB40
:10114000A1880843A080504533D04FF45A4003F0A3
:10115000FBFF03F069FB4FF45B4003F0F5FF03F086
:1011600063FB06EA0020A0804FF45C4003F0ECFF34
:1011700003F05AFBA1880843A080B0F5004F7DD052
:10118000A84216D0A12003F0DFFF03F04DFBA080A2
:1011900003F04AFB06EA0020A08003F045FBA1888B
:1011A0000843A0F5AE41A080613902D141F6631039
:1011B000A080A188A6A0FFF787F8A088B8427DD1BB
:1011C000CF2003F0C1FF002003F0ACFFC12003F0EB
:1011D000A9FF302003F0A6FFED2003F0B5FF642047
:1011E00003F0A0FF032003F09DFF122003F09AFFFD
:1011F000812003F097FFE82003F0A6FF852003F08D
:1012000091FF102003F08EFF7A2003F08BFFCB209C
:1012100003F09AFF392003F085FF2C2003F082FFB2
:10122000002003F07FFF342003F07CFF022003F056
:1012300079FFF72003F088FF202003F073FFEA20F6
:1012400003F082FF002003F06DFF002003F06AFF2F
:10125000C02003F079FF1B2003F064FFC12003F0DE
:1012600073FF012003F05EFFC52003F06DFF302007
:1012700003F058FF302003F055FF00E0B3E0C72033
:1012800003F062FFB72003F04DFF362003F05CFF50
:10129000482003F047FF3A2003F056FF552003F0A3
:1012A00041FFB12003F050FF002003F03BFF1A2064
:1012B00003F038FFB62003F047FF00E095E00A2076
:1012C00003F030FFA22003F02DFFF22003F03CFFDB
:1012D000002003F027FF262003F036FF012003F053
:1012E00021FFE02003F030FF0F2003F01BFF2A2036
:1012F00003F018FF282003F015FF082003F012FF69
:101300000E2003F00FFF082003F00CFF542003F021
:1013100009FFA92003F006FF432003F003FF0A2082
:1013200003F000FF0F2003F0FDFE002003F0FAFEA3
:10133000002003F0F7FE002003F0F4FE002003F08D
:10134000F1FEE12003F000FF002003F0EBFE15208A
:1013500003F0E8FE172003F0E5FE072003F0E2FEAD
:10136000112003F0DFFE062003F0DCFE2B2003F04B
:10137000D9FE562003F0D6FE3C2003F0D3FE052014
:1013800003F0D0FE102003F0CDFE0F2003F0CAFEC4
:101390003F2003F0C7FE3F2003F0C4FE0F2003F000
:1013A000C1FE2B2003F0D0FE002003F0BBFE002086
:1013B00003F0B8FE012003F0B5FE3F2003F0B2FEBB
:1013C0002A2003F0C1FE002003F0ACFE002003F051
:1013D000A9FE002003F0A6FEEF2003F0A3FE1120DB
:1013E00003F0B2FEB8E0A580E3E648457ED11120C7
:1013F00003F0AAFE142004F033FDD02003F0A4FE75
:10140000072003F08FFE422003F08CFE1D2003F026
:1014100089FED12003F098FE002003F083FE1A20FD
:1014200003F080FE092003F07DFED22003F08CFE45
:10143000012003F077FE222003F074FEC0200FE0AD
:101440000002300000100140000C0140CC000020E0
:10145000204C43442049443A25780D0A00000000FE
:1014600003F072FE102003F05DFE3B2003F05AFEF5
:10147000002003F057FE022003F054FE112003F079
:1014800051FEC52003F060FE032003F04BFEC82090
:1014900003F05AFE002003F045FE252003F042FE33
:1014A000212003F03FFE052003F03CFE002003F066
:1014B00039FE0A2003F036FE652003F033FE2520B6
:1014C00003F030FE772003F02DFE502003F02AFEBB
:1014D0000F2003F027FE002003F024FEF82003F085
:1014E00033FE012003F01EFEFE2000E03AE003F090
:1014F0002BFE002003F016FE022003F013FE202036
:1015000003F022FE362003F01FFE082003F00AFE3F
:101510003A2003F019FE552003F004FE2B2003F0BF
:1015200013FE002003F0FEFD002003F0FBFD012070
:1015300003F0F8FD3F2003F0F5FD2A2003F004FE40
:10154000002003F0EFFD002003F0ECFD012003F08C
:10155000E9FDDF2003F0E6FD782004F081FC29207E
:1015600001F0FBBE50457CD1ED2003F0EDFD0120E4
:1015700003F0D8FDFE2003F0D5FDEE2003F0E4FDDE
:10158000DE2003F0CFFD212003F0CCFDF12003F09D
:10159000DBFD012003F0C6FDDF2003F0D5FD1020A8
:1015A00003F0C0FDC42003F0CFFD8F2003F0BAFD8F
:1015B000C62003F0C9FD002003F0B4FDE22003F0D3
:1015C000B1FDE22003F0AEFDE22003F0ABFDBF2051
:1015D00003F0BAFDAA2003F0A5FDB02003F0B4FD8E
:1015E0000D2003F09FFD002003F09CFD0D2003F073
:1015F00099FD002003F096FD112003F093FD0020DB
:1016000003F090FD192003F08DFD002003F08AFD0A
:10161000212003F087FD002003F084FD2D2003F03E
:1016200081FD002003F07EFD3D2003F07BFD0020C6
:1016300003F078FD5D2003F075FD002003F072FDDE
:101640005D2003F06FFD002003F06CFDB12003F07E
:101650007BFD802003F066FD002003F063FD8B20FE
:1016600000E0FCE303F05EFD002003F05BFD96204C
:1016700003F058FD002003F055FDB22003F064FD97
:10168000002003F04FFD002003F04CFD022003F08A
:1016900049FD002003F046FD032003F043FD002038
:1016A00003F040FDB32003F04FFD002003F03AFDAE
:1016B000002003F037FD002003F034FD002003F08C
:1016C00031FD002003F02EFD002003F02BFD002053
:1016D00003F028FD002003F025FD002003F022FD8B
:1016E000002003F01FFD002003F01CFD002003F08C
:1016F00019FD002003F016FD002003F013FD00206B
:1017000003F010FD002003F00DFD002003F00AFDA2
:10171000002003F007FD002003F004FD002003F08B
:1017200001FD002003F0FEFC002003F0FBFC002084
:1017300003F0F8FC002003F0F5FCB42003F004FDF6
:101740008B2003F0EFFC002003F0ECFC962003F06C
:10175000E9FC002003F0E6FCA12003F0E3FC0020FC
:1017600003F0E0FCB52003F0EFFC022003F0DAFC0C
:10177000002003F0D7FC032003F0D4FC002003F08A
:10178000D1FC042003F0CEFC002003F0CBFCB620FB
:1017900003F0DAFC002003F0C5FC002003F0C2FCDB
:1017A000B72003F0D1FC002003F0BCFC002003F0C4
:1017B000B9FC3F2003F0B6FC002003F0B3FC5E2030
:1017C00003F0B0FC002003F0ADFC642003F0AAFCA1
:1017D000002003F0A7FC8C2003F0A4FC002003F001
:1017E000A1FCAC2003F09EFC002003F09BFCDC205D
:1017F00003F098FC002003F095FC702003F092FCAD
:10180000002003F08FFC902003F08CFC002003F0FC
:1018100089FCEB2003F086FC002003F083FCDC2035
:1018200003F080FC002003F07DFCB82003F08CFC6A
:10183000002003F077FC002003F074FC002003F08C
:1018400071FC002003F06EFC002003F06BFC002014
:1018500003F068FC002003F065FC002003F062FC4C
:10186000BA2003F071FC242003F05CFC002003F09C
:1018700059FC002003F056FC002003F053FCC1206B
:1018800003F062FC202003F04DFC002003F04AFC32
:10189000542003F047FC002003F044FCFF2003F039
:1018A00041FC002003F03EFCC22003F04DFC0A2066
:1018B00003F038FC002003F035FC042003F032FC78
:1018C000002003F02FFCC32003F03EFC3C2003F07B
:1018D00029FC002003F026FC3A2003F023FC002022
:1018E00003F020FC392003F01DFC002003F01AFC5B
:1018F000372003F017FC002003F014FC3C2003F019
:1019000011FC002003F00EFC362003F00BFC00203D
:1019100003F008FC322003F005FC002003F002FC79
:101920002F2003F0FFFB002003F0FCFB2C2003F032
:10193000F9FB002003F0F6FB292003F0F3FB002065
:1019400003F0F0FB262003F0EDFB002003F0EAFBA0
:10195000242003F0E7FB002003F0E4FB242003F045
:10196000E1FB002003F0DEFB232003F0DBFB002083
:1019700003F0D8FB3C2003F0D5FB002003F0D2FBA2
:10198000362003F0CFFB002003F0CCFB322003F025
:10199000C9FB002003F0C6FB2F2003F0C3FB00208F
:1019A00003F0C0FB2C2003F0BDFB002003F0BAFBCA
:1019B000292003F0B7FB002003F0B4FB262003F03E
:1019C000B1FB002003F0AEFB242003F0ABFB0020B2
:1019D00003F0A8FB242003F0A5FB002003F0A2FBEA
:1019E000232003F09FFB002003F09CFBC42003F0A6
:1019F000ABFB622003F096FB002003F093FB052075
:101A000003F090FB002003F08DFB842003F08AFBA1
:101A1000002003F087FBF02003F084FB002003F09C
:101A200081FB182003F07EFB002003F07BFBA42049
:101A300003F078FB002003F075FB182003F072FB25
:101A4000002003F06FFB502003F06CFB002003F03C
:101A500069FB0C2003F066FB002003F063FB1720FA
:101A600003F060FB002003F05DFB952003F05AFBC0
:101A7000002003F057FBF32003F054FB002003F099
:101A800051FBE62003F04EFB002003F04BFBC5208A
:101A900003F05AFB322003F045FB002003F042FB29
:101AA000442003F03FFB002003F03CFB652003F0E3
:101AB00039FB002003F036FB762003F033FB0020D7
:101AC00003F030FB882003F02DFB002003F02AFBFD
:101AD000C62003F039FB202003F024FB002003F094
:101AE00021FB172003F01EFB002003F01BFB01204D
:101AF00003F018FB002003F015FBC72003F024FBC4
:101B0000002003F00FFB002003F00CFB002003F08B
:101B100009FB002003F006FBC82003F015FB0020A2
:101B200003F000FB002003F0FDFA002003F0FAFAB6
:101B3000002003F0F7FAC92003F006FB002003F0B1
:101B4000F1FA002003F0EEFA002003F0EBFA002097
:101B500003F0E8FA002003F0E5FA002003F0E2FACF
:101B6000002003F0DFFA002003F0DCFA002003F08D
:101B7000D9FA002003F0D6FA002003F0D3FA0020AF
:101B800003F0D0FA002003F0CDFA002003F0CAFAE7
:101B9000002003F0C7FA002003F0C4FAE02003F0AD
:101BA000D3FA162003F0BEFA002003F0BBFA1C2083
:101BB00003F0B8FA002003F0B5FA212003F0B2FADE
:101BC000002003F0AFFA362003F0ACFA002003F057
:101BD000A9FA462003F0A6FA002003F0A3FA522047
:101BE00003F0A0FA002003F09DFA642003F09AFAB3
:101BF000002003F097FA7A2003F094FA002003F013
:101C000091FA8B2003F08EFA002003F08BFA9920D2
:101C100003F088FA002003F085FAA82003F082FA86
:101C2000002003F07FFAB92003F07CFA002003F0D3
:101C300079FAC42003F076FA002003F073FACA2080
:101C400003F070FA002003F06DFAD22003F06AFA74
:101C5000002003F067FAD92003F064FA002003F0B3
:101C600061FAE02003F05EFA002003F05BFAF32053
:101C700003F058FA002003F055FAE12003F064FA6B
:101C8000162003F04FFA002003F04CFA1C2003F05A
:101C900049FA002003F046FA222003F043FA00201C
:101CA00003F040FA362003F03DFA002003F03AFA40
:101CB000452003F037FA002003F034FA522003F0F5
:101CC00031FA002003F02EFA642003F02BFA0020F2
:101CD00003F028FA7A2003F025FA002003F022FA14
:101CE0008B2003F01FFA002003F01CFA992003F068
:101CF00019FA002003F016FAA82003F013FA0020C6
:101D000003F010FAB92003F00DFA002003F00AFAEC
:101D1000C42003F007FA002003F004FACA2003F0FD
:101D200001FA002003F0FEF9D22003F0FBF90020B5
:101D300003F0F8F9D82003F0F5F9002003F0F2F9E8
:101D4000E02003F0EFF9002003F0ECF9F32003F0BA
:101D5000E9F9002003F0E6F9E22003F0F5F90520A7
:101D600003F0E0F9002003F0DDF90B2003F0DAF9CD
:101D7000002003F0D7F91B2003F0D4F9002003F072
:101D8000D1F9342003F0CEF9002003F0CBF9442040
:101D900003F0C8F9002003F0C5F94F2003F0C2F9A1
:101DA000002003F0BFF9612003F0BCF9002003F02C
:101DB000B9F9792003F0B6F9002003F0B3F98820CF
:101DC00003F0B0F9002003F0ADF9972003F0AAF971
:101DD000002003F0A7F9A62003F0A4F9002003F0E7
:101DE000A1F9B72003F09EF9002003F09BF9C2206F
:101DF00003F098F9002003F095F9C72003F092F959
:101E0000002003F08FF9D12003F08CF9002003F0BB
:101E100089F9D62003F086F9002003F083F9DD204C
:101E200003F080F9002003F07DF9F32003F07AF944
:101E3000002003F077F9E32003F086F9052003F092
:101E400071F9002003F06EF90A2003F06BF900200D
:101E500003F068F91C2003F065F9002000E0FDE2C2
:101E600003F060F9332003F05DF9002003F05AF924
:101E7000442003F057F9002003F054F9502003F0F8
:101E800051F9002003F04EF9622003F04BF90020D5
:101E900003F048F9782003F045F9002003F042F9F7
:101EA000882003F03FF9002003F03CF9972003F06D
:101EB00039F9002003F036F9A62003F033F90020A9
:101EC00003F030F9B72003F02DF9002003F02AF9D0
:101ED000C22003F027F9002003F024F9C72003F003
:101EE00021F9002003F01EF9D12003F01BF9002096
:101EF00003F018F9D52003F015F9002003F012F9CA
:101F0000DD2003F00FF9002003F00CF9F32003F0BB
:101F100009F9002003F006F9E42003F015F9012087
:101F200003F000F9002003F0FDF8012003F0FAF8B7
:101F3000002003F0F7F8022003F0F4F8002003F08B
:101F4000F1F82A2003F0EEF8002003F0EBF83C2033
:101F500003F0E8F8002003F0E5F84B2003F0E2F886
:101F6000002003F0DFF85D2003F0DCF8002003F030
:101F7000D9F8742003F0D6F8002003F0D3F88420B9
:101F800003F0D0F8002003F0CDF8932003F0CAF856
:101F9000002003F0C7F8A22003F0C4F8002003F0EB
:101FA000C1F8B32003F0BEF8002003F0BBF8BE2058
:101FB00003F0B8F8002003F0B5F8C42003F0B2F83D
:101FC000002003F0AFF8CD2003F0ACF8002003F0C0
:101FD000A9F8D32003F0A6F8002003F0A3F8DD2031
:101FE00003F0A0F8002003F09DF8F32003F09AF826
:101FF000002003F097F8E52003F0A6F8002003F096
:1020000091F8002003F08EF8002003F08BF80020F8
:1020100003F088F8022003F085F8002003F082F82E
:10202000292003F07FF8002003F07CF83C2003F027
:1020300079F8002003F076F84B2003F073F80020C5
:1020400003F070F85D2003F06DF8002003F06AF8EB
:10205000742003F067F8002003F064F8842003F094
:1020600061F8002003F05EF8932003F05BF8002095
:1020700003F058F8A22003F055F8002003F052F8BE
:10208000B32003F04FF8002003F04CF8BE2003F01B
:1020900049F8002003F046F8C42003F043F800207C
:1020A00003F040F8CD2003F03DF8002003F03AF8AB
:1020B000D32003F037F8002003F034F8DC2003F0DD
:1020C00031F8002003F02EF8F32003F02BF8002065
:1020D00003F028F8E62003F037F8112003F022F887
:1020E000002003F01FF8342003F01CF8002003F058
:1020F00019F8562003F016F8002003F013F87620A4
:1021000003F010F8002003F00DF8772003F00AF830
:10211000002003F007F8662003F004F8002003F025
:1021200001F8882002F0FEFF002002F0FBFF99205A
:1021300002F0F8FF002002F0F5FFBB2002F0F2FFF2
:10214000002002F0EFFF992002F0ECFF002002F0E7
:10215000E9FF662002F0E6FF002002F0E3FF5520D1
:1021600002F0E0FF002002F0DDFF552002F0DAFF70
:10217000002002F0D7FF452002F0D4FF002002F03B
:10218000D1FF432002F0CEFF002002F0CBFF44201D
:1021900002F0C8FF002002F0C5FFE72002F0D4FFE4
:1021A000322002F0BFFF002002F0BCFF552002F0F9
:1021B000B9FF002002F0B6FF762002F0B3FF002046
:1021C00002F0B0FF662002F0ADFF002002F0AAFF8F
:1021D000672002F0A7FF002002F0A4FF672002F0B2
:1021E000A1FF002002F09EFF872002F09BFF00204D
:1021F00002F098FF992002F095FF002002F092FF74
:10220000BB2002F08FFF002002F08CFF992002F02B
:1022100089FF002002F086FF772002F083FF002074
:1022200002F080FF442002F07DFF002002F07AFFE0
:10223000562002F077FF002002F074FF232002F006
:1022400071FF002002F06EFF332002F06BFF0020D0
:1022500002F068FF452002F065FF002002F062FFF7
:10226000E82002F071FF002002F05CFF002002F085
:1022700059FF992002F056FF002002F053FF8720FB
:1022800002F050FF002002F04DFF882002F04AFFCC
:10229000002002F047FF772002F044FF002002F008
:1022A00041FF662002F03EFF002002F03BFF882045
:1022B00002F038FF002002F035FFAA2002F032FFC2
:1022C000002002F02FFFBB2002F02CFF002002F0C4
:1022D00029FF992002F026FF002002F023FF66204C
:1022E00002F020FF002002F01DFF552002F01AFF2F
:1022F000002002F017FF552002F014FF002002F02A
:1023000011FF442002F00EFF002002F00BFF4420DA
:1023100002F008FF002002F005FF552002F002FF46
:10232000002002F0FFFEE92002F00EFFAA2002F0DA
:10233000F9FE002002F0F6FE002002F0F3FE00207D
:1023400002F0F0FE002002F0FFFEAA2002F0EAFEFA
:10235000CF2002F0F9FE002002F0E4FE002002F09F
:10236000E1FE002002F0DEFE002002F0DBFE002095
:1023700002F0D8FE002002F0D5FE002002F0D2FECE
:10238000002002F0CFFE002002F0CCFE002002F080
:10239000C9FE002002F0C6FE002002F0C3FE0020AD
:1023A00002F0C0FE002002F0BDFE002002F0BAFEE6
:1023B000002002F0B7FE002002F0B4FEF02002F090
:1023C000C3FE002002F0AEFE502002F0ABFE002063
:1023D00002F0A8FE002002F0A5FE002002F0A2FEFE
:1023E000F32002F0B1FE002002F09CFEF92002F082
:1023F000ABFE062002F096FE102002F093FE29208C
:1024000002F090FE002002F08DFE3A2002F09CFEC9
:10241000552002F087FE112002F096FE642003F0A2
:102420001FFD292002F090FE352002F08DFE0020D5
:1024300002F078FE512002F087FEFF2002F072FECB
:10244000532002F081FE2C2002F06CFE552002F099
:102450007BFE822002F066FE2C20FCE3A8427DD1A8
:102460004FF470445521204602F086FE651CAA21D7
:10247000284602F081FEA61C5221304602F07CFE66
:10248000E71C0821384602F077FE4FF204080121CC
:10249000404602F071FE0D214FF4304002F06CFE18
:1024A0000D214BF2010002F067FE0D214BF20200FC
:1024B00002F062FE4FF436493421484602F05CFED9
:1024C00034214BF2016002F057FE34214BF20260DE
:1024D00002F052FE4FF4314A0D21504602F04CFEFC
:1024E0004BF2011B0D21584602F046FE0D214BF226
:1024F000021002F041FE34214FF4374002F03CFE5E
:1025000034214BF2017002F037FE34214BF202709D
:1025100002F032FE00214FF4324002F02DFE002185
:102520004BF2012002F028FE00214BF2022002F0C3
:1025300023FE24214FF4384002F01EFE24214BF6E6
:10254000010002F019FE24214BF6020002F014FEF5
:1025500001214FF43F4002F00FFE00E0FEE30F21A7
:102560004FF4334002F008FE0F214BF2013002F02D
:1025700003FE0F214BF2023002F0FEFD34214FF436
:10258000394002F0F9FD34214BF6011002F0F4FD60
:1025900034214BF6021002F0EFFD08214FF43540D4
:1025A00002F0EAFD08214BF2015002F0E5FD08219E
:1025B0004BF2025002F0E0FD03214FF4424002F0E2
:1025C000DBFD24214FF43A4002F0D6FD24214BF6E6
:1025D000012002F0D1FD24214BF6022002F0CCFDB7
:1025E00000214FF43C4002F0C7FD78214BF601403A
:1025F00002F0C2FD00214BF6024002F0BDFD0021B9
:102600004FF43D4002F0B8FD78214BF6015002F046
:10261000B3FD00214BF6025002F0AEFD00214FF455
:102620003E4002F0A9FD64214BF6016002F0A4FDDA
:1026300000214FF4514002F09FFD33214DF2011073
:1026400002F09AFD00214DF2021002F095FD3421B6
:102650004DF2031002F090FD00214DF2041002F043
:102660008BFD3A214DF2051002F086FD00214DF25E
:10267000061002F081FD4A214DF2071002F07CFDA8
:1026800000214DF2081002F077FD5C214DF2091097
:1026900002F072FD00214DF20A1002F06DFD812161
:1026A0004DF20B1002F068FD00214DF20C1002F00B
:1026B00063FDA6214DF20D1002F05EFD00214DF2EA
:1026C0000E1002F059FDE5214DF20F1002F054FDFD
:1026D00001214DF2101002F04FFD13214DF21110A7
:1026E00002F04AFD01214DF2121002F045FD542185
:1026F0004DF2131002F040FD01214DF2141002F0D2
:102700003BFD82214DF2151002F036FD01214DF204
:10271000161002F031FDCA214DF2171002F02CFD07
:1027200002214DF2181002F027FD00214DF2191080
:1027300002F022FD02214DF21A1002F01DFD0121CE
:102740004DF21B1002F018FD02214DF21C1002F098
:1027500013FD34214DF21D1002F00EFD02214DF249
:102760001E1002F009FD67214DF21F1002F004FD5A
:1027700002214DF2201002F0FFFC84214DF22110C5
:1027800002F0FAFC02214DF2221002F0F5FCA42125
:102790004DF2231002F0F0FC02214DF2241002F061
:1027A000EBFCB7214DF2251002F0E6FC02214DF2C0
:1027B000261002F0E1FCCF214DF2271002F0DCFCE4
:1027C00002214DF2281002F0D7FCDE214DF2291033
:1027D00002F0D2FC02214DF22A1002F0CDFCF221CF
:1027E0004DF22B1002F0C8FC02214DF22C1002F029
:1027F000C3FCFE214DF22D1002F0BEFC03214DF270
:102800002E1002F0B9FC10214DF22F1002F0B4FC92
:1028100003214DF2301002F0AFFC33214DF23110A4
:1028200002F0AAFC03214DF2321002F0A5FC6D214A
:102830004DF2331002F0A0FC00214FF4524002F0A0
:102840009BFC33214DF2012002F096FC00214DF259
:10285000022002F091FC34214DF2032002F08CFCA6
:1028600000214DF2042002F087FC3A214DF20520B0
:1028700002F082FC00214DF2062002F07DFC4A218C
:102880004DF2072002F078FC00214DF2082002F002
:1028900073FC5C214DF2092002F06EFC00214DF228
:1028A0000A2002F069FC81214DF20B2002F064FC49
:1028B00000214DF20C2002F05FFCA6214DF20D200C
:1028C00002F05AFC00214DF20E2002F055FCE521E9
:1028D0004DF20F2002F050FC01214DF2102002F0C9
:1028E0004BFC13214DF2112002F046FC01214DF268
:1028F000122002F041FC54214DF2132002F03CFC66
:1029000001214DF2142002F037FC82214DF21520F6
:1029100002F032FC01214DF2162002F02DFCCA21FA
:102920004DF2172002F028FC02214DF2182002F08F
:1029300023FC00214DF2192002F01EFC02214DF271
:102940001A2002F019FC01214DF21B2002F014FCA8
:1029500002214DF21C2002F00FFC34214DF21D200B
:1029600002F00AFC02214DF21E2002F005FC672154
:102970004DF21F2002F000FC02214DF2202002F057
:10298000FBFB84214DF2212002F0F6FB02214DF2E7
:10299000222002F0F1FBA4214DF2232002F0ECFBF7
:1029A00002214DF2242002F0E7FBB7214DF2252051
:1029B00002F0E2FB02214DF2262002F0DDFBCF21E6
:1029C0004DF2272002F0D8FB02214DF2282002F020
:1029D000D3FBDE214DF2292002F0CEFB02214DF285
:1029E0002A2002F0C9FBF2214DF22B2002F0C4FB99
:1029F00002214DF22C2002F0BFFBFE214DF22D20D2
:102A000002F0BAFB03214DF22E2002F0B5FB10219B
:102A10004DF22F2002F0B0FB03214DF2302002F0E6
:102A2000ABFB33214DF2312002F0A6FB03214DF226
:102A3000322002F0A1FB6D214DF2332002F09CFB0D
:102A400000214FF4534002F097FB33214DF2013047
:102A500002F092FB00214DF2023002F08DFB342196
:102A60004DF2033002F088FB00214DF2043002F0F9
:102A700083FB3A214DF2053002F07EFB00214DF23E
:102A8000063002F079FB4A214DF2073002F074FB68
:102A900000214DF2083002F06FFB5C214DF209304D
:102AA00002F06AFB00214DF20A3002F065FB812141
:102AB0004DF20B3002F060FB00214DF20C3002F0C1
:102AC0005BFBA6214DF20D3002F056FB00214DF2CA
:102AD0000E3002F051FBE5214DF20F3002F04CFBBD
:102AE00001214DF2103002F047FB13214DF211305D
:102AF00002F042FB01214DF2123002F03DFB542165
:102B00004DF2133002F038FB01214DF2143002F087
:102B100033FB82214DF2153002F02EFB01214DF2E4
:102B2000163002F029FBCA214DF2173002F024FBC7
:102B300002214DF2183002F01FFB00214DF2193036
:102B400002F01AFB02214DF21A3002F015FB0121AE
:102B50004DF21B3002F010FB02214DF21C3002F04E
:102B60000BFB34214DF21D3002F006FB02214DF229
:102B70001E3002F001FB67214DF21F3002F0FCFA1B
:102B800002214DF2203002F0F7FA84214DF221307B
:102B900002F0F2FA02214DF2223002F0EDFAA42105
:102BA0004DF2233002F0E8FA02214DF2243002F017
:102BB000E3FAB7214DF2253002F0DEFA02214DF2A0
:102BC000263002F0D9FACF214DF2273002F0D4FAA4
:102BD00002214DF2283002F0CFFADE214DF22930E9
:102BE00002F0CAFA02214DF22A3002F0C5FAF221AF
:102BF0004DF22B3002F0C0FA02214DF22C3002F0DF
:102C0000BBFAFE214DF22D3002F0B6FA03214DF24F
:102C10002E3002F0B1FA10214DF22F3002F0ACFA52
:102C200003214DF2303002F0A7FA33214DF231305A
:102C300002F0A2FA03214DF2323002F09DFA6D212A
:102C40004DF2333002F098FA00214FF4544002F074
:102C500093FA332100E080E34DF2014002F08CFA58
:102C600000214DF2024002F087FA34214DF2034078
:102C700002F082FA00214DF2044002F07DFA3A217E
:102C80004DF2054002F078FA00214DF2064002F0C4
:102C900073FA4A214DF2074002F06EFA00214DF21C
:102CA000084002F069FA5C214DF2094002F064FA32
:102CB00000214DF20A4002F05FFA81214DF20B40F3
:102CC00002F05AFA00214DF20C4002F055FAA6210A
:102CD0004DF20D4002F050FA00214DF20E4002F08C
:102CE0004BFAE5214DF20F4002F046FA01214DF278
:102CF000104002F041FA13214DF2114002F03CFA6B
:102D000001214DF2124002F037FA54214DF21340E6
:102D100002F032FA01214DF2144002F02DFA822124
:102D20004DF2154002F028FA01214DF2164002F052
:102D300023FACA214DF2174002F01EFA02214DF289
:102D4000184002F019FA00214DF2194002F014FA6D
:102D500002214DF21A4002F00FFA00E001E30121D6
:102D60004DF21B4002F008FA02214DF21C4002F025
:102D700003FA34214DF21D4002F0FEF902214DF21A
:102D80001E4002F0F9F967214DF21F4002F0F4F9FC
:102D900002214DF2204002F0EFF984214DF2214052
:102DA00002F0EAF902214DF2224002F0E5F9A421F5
:102DB0004DF2234002F0E0F902214DF2244002F0EE
:102DC000DBF9B7214DF2254002F0D6F902214DF290
:102DD000264002F0D1F9CF214DF2274002F0CCF984
:102DE00002214DF2284002F0C7F9DE214DF22940C0
:102DF00002F0C2F902214DF22A4002F0BDF9F2219F
:102E00004DF22B4002F0B8F902214DF22C4002F0B5
:102E1000B3F9FE214DF22D4002F0AEF903214DF23F
:102E20002E4002F0A9F910214DF22F4002F0A4F932
:102E300003214DF2304002F09FF933214DF2314031
:102E400002F09AF903214DF2324002F095F96D211A
:102E50004DF2334002F090F900214FF4554002F05A
:102E60008BF933214DF2015002F086F900214DF229
:102E7000025002F081F934214DF2035002F07CF946
:102E800000214DF2045002F077F93A214DF205503D
:102E900002F072F900214DF2065002F06DF94A215C
:102EA0004DF2075002F068F900214DF2085002F08F
:102EB00063F95C214DF2095002F05EF900214DF2F8
:102EC0000A5002F059F981214DF20B5002F054F9E9
:102ED00000214DF20C5002F04FF9A6214DF20D5099
:102EE00002F04AF900214DF20E5002F045F9E521B9
:102EF0004DF20F5002F040F901214DF2105002F056
:102F00003BF913214DF2115002F036F901214DF237
:102F1000125002F031F954214DF2135002F02CF905
:102F200001214DF2145002F027F982214DF2155083
:102F300002F022F901214DF2165002F01DF9CA21CA
:102F40004DF2175002F018F902214DF2185002F01C
:102F500013F900214DF2195002F00EF902214DF241
:102F60001A5002F009F901214DF21B5002F004F948
:102F700002214DF21C5002F0FFF834214DF21D5099
:102F800002F0FAF802214DF21E5002F0F5F8672126
:102F90004DF21F5002F0F0F802214DF2205002F0E5
:102FA000EBF884214DF2215002F0E6F802214DF2B7
:102FB000225002F0E1F8A4214DF2235002F0DCF897
:102FC00002214DF2245002F0D7F8B7214DF22550DE
:102FD00002F0D2F802214DF2265002F0CDF8CF21B6
:102FE0004DF2275002F0C8F802214DF2285002F0AD
:102FF000C3F8DE214DF2295002F0BEF802214DF255
:103000002A5002F0B9F8F2214DF22B5002F0B4F838
:1030100002214DF22C5002F0AFF8FE214DF22D505E
:1030200002F0AAF803214DF22E5002F0A5F810216B
:103030004DF22F5002F0A0F803214DF2305002F073
:103040009BF833214DF2315002F096F803214DF2F6
:10305000325002F091F86D214DF2335002F08CF8AD
:1030600000214FF4564002F087F833214DF2016001
:1030700002F082F800214DF2026002F07DF8342166
:103080004DF2036002F078F800214DF2046002F086
:1030900073F83A214DF2056002F06EF800214DF20E
:1030A000066002F069F84A214DF2076002F064F808
:1030B00000214DF2086002F05FF85C214DF20960DA
:1030C00002F05AF800214DF20A6002F055F8812111
:1030D0004DF20B6002F050F800214DF20C6002F04E
:1030E0004BF8A6214DF20D6002F046F800214DF29A
:1030F0000E6002F041F8E5214DF20F6002F03CF85D
:1031000001214DF2106002F037F813214DF21160E9
:1031100002F032F801214DF2126002F02DF8542134
:103120004DF2136002F028F801214DF2146002F014
:1031300023F882214DF2156002F01EF801214DF2B4
:10314000166002F019F8CA214DF2176002F014F867
:1031500002214DF2186002F00FF800214DF21960C3
:1031600002F00AF802214DF21A6002F005F801217E
:103170004DF21B6002F000F802214DF21C6001F0DC
:10318000FBFF34214DF21D6001F0F6FF02214DF2EC
:103190001E6001F0F1FF67214DF21F6001F0ECFFAE
:1031A00002214DF2206001F0E7FF84214DF2216001
:1031B00001F0E2FF02214DF2226001F0DDFFA421C7
:1031C0004DF2236001F0D8FF02214DF2246001F09E
:1031D000D3FFB7214DF2256001F0CEFF02214DF261
:1031E000266001F0C9FFCF214DF2276001F0C4FF36
:1031F00002214DF2286001F0BFFFDE214DF229606F
:1032000001F0BAFF02214DF22A6001F0B5FFF22170
:103210004DF22B6001F0B0FF02214DF22C6001F065
:10322000ABFFFE214DF22D6001F0A6FF03214DF210
:103230002E6001F0A1FF10214DF22F6001F09CFFE4
:1032400003214DF2306001F097FF33214DF23160E0
:1032500001F092FF03214DF2326001F08DFF6D21EC
:103260004DF2336001F088FF5521204601F084FFC4
:10327000AA21284601F080FF5221304601F07CFF50
:103280000821384601F078FF0021404601F074FF24
:10329000CC21504601F070FF0021584601F06CFF30
:1032A0000521484601F068FF70214FF4374001F0D6
:1032B00063FF70214BF2017001F05EFF01214FF4BA
:1032C000384001F059FF03214BF6010001F054FF93
:1032D00003214BF6020001F04FFF03214BF60300E0
:1032E00001F04AFF02214FF43C4001F045FF00216C
:1032F0004BF6014001F040FF00214BF6024001F087
:103300003BFFD0214FF4494001F036FF02214CF63B
:10331000011001F031FF50214CF6021001F02CFF9A
:1033200050214CF6031001F027FF50214CF60410F9
:1033300001F022FF00214FF4545001F01DFF5521F0
:103340004FF4685001F018FF4FF4885001F0FCFE74
:10335000782002F0A1FD4FF4245001F0F5FE01F0B9
:103360004ABAA0F513414FF480774FF4E06940F278
:10337000022A40F23F144FF4274625392AD04FF451
:10338000017B40F20775C91E7ED04FF48876083164
:103390007BD011397AD0A0F5A841083977D0A0F5B3
:1033A000A8514FF44076053972D0B1F5204170D064
:1033B000B1F580516ED0A0F5094189396BD0A0F5E7
:1033C0008A41313968D0091F67D0A0F5C8516339E7
:1033D0007DD0C4E747F6F001E52001F0CDFE394687
:1033E000012001F0C9FE4946022001F0C5FE41F26C
:1033F0003001032001F0C0FE0021042001F0BCFEDA
:103400005146082001F0B8FE0021092001F0B4FE69
:1034100000210A2001F0B0FE00210C2001F0ACFEDA
:1034200000210D2001F0A8FE00210F2001F0A4FED4
:103430000021102001F0A0FE0721112001F09CFEC8
:103440000021122001F098FE0021132001F094FECB
:103450000021072001F090FE41F29061102001F060
:103460008BFE40F22721112001F086FE9D211220C3
:1034700001F082FE4FF4C851132001F07DFE25219A
:10348000292001F079FE09E07CE036E1D9E1ACE2E7
:1034900047E3FDE3FDE3FDE3FDE3FDE30D212B2029
:1034A00001F06AFE0721302001F066FE40F2033190
:1034B000312001F061FE0321322001F05DFE40F277
:1034C0000621352001F058FE0821362000E0FDE3FA
:1034D00001F052FE40F20641372001F04DFE4FF45C
:1034E0004171382001F048FE0721392001F044FEE7
:1034F00040F202613C2001F03FFE08213D2001F036
:103500003BFE0021502001F037FEEF21512001F059
:1035100033FE0021522001F02FFE2146532001F0FE
:103520002BFE3146602001F027FE0121612001F0D1
:1035300023FE00216A2001F01FFE0021802001F0FF
:103540001BFE0021812001F017FE0021822001F0E6
:1035500013FE0021832001F00FFE0021842001F0E2
:103560000BFE0021852001F007FE1021902001F0C4
:1035700003FE4FF4C061922001F0FEFD40F23311D2
:103580000720FDE341F28F01EC2001F0F5FD41F24F
:103590003421EF2001F0F0FD3946012001F0ECFD6F
:1035A0004946022001F0E8FD41F23001032001F01C
:1035B000E3FD0021042001F0DFFD5146082001F069
:1035C000DBFD0021092001F0D7FD00210A2001F0D8
:1035D000D3FD01210C2001F0CFFD00210D2001F0D1
:1035E000CBFD00210F2001F0C7FD0021102001F0CC
:1035F000C3FD0721112001F0BFFD0021122001F0C1
:10360000BBFD0021132001F0B7FD0121072001F0CF
:10361000B3FD322002F024FC41F29041102001F071
:10362000ABFD40F22721112001F0A6FD322002F06F
:1036300017FC8A21122001F09FFD322002F010FCBD
:103640004FF4D051132001F097FD0621292001F0FD
:1036500093FD0D212B2001F08FFD322002F000FCA4
:103660000021202001F088FD0021212001F084FDAF
:10367000322002F0F5FB0021302001F07DFD40F208
:103680000461312001F078FD40F20531322001F073
:1036900073FD0021352001F06FFD40F60941362011
:1036A00001F06AFD5946372001F066FD40F2013114
:1036B000382001F061FD2946392001F05DFD00212F
:1036C0003C2001F059FD40F60A213D2001F054FD57
:1036D000322002F0C5FB0021502001F04DFDEF210A
:1036E000512001F049FD0021522001F045FD214605
:1036F000532001F041FD31464CE10021084601F024
:103700003BFD3946012001F037FD4946022001F01A
:1037100033FD41F23001032001F02EFD0021042091
:1037200001F02AFD5146082001F026FD0021092064
:1037300001F022FD00210A2001F01EFD01210C20D4
:1037400001F01AFD00210D2001F016FD00210F20CF
:1037500001F012FD322002F083FB40F2011107203C
:1037600001F00AFD322002F07BFB4FF4865110205D
:1037700001F002FD0721112001F0FEFC314612206C
:1037800001F0FAFC4FF43061132001F0F5FC002148
:10379000292001F0F1FC44F210012B2001F0ECFC97
:1037A0000021502001F0E8FCEF21512001F0E4FC61
:1037B0000021522001F0E0FC2146532001F0DCFC06
:1037C0004FF41C51602001F0D7FC0121612001F071
:1037D000D3FC00216A2001F0CFFC0021802001F001
:1037E000CBFC0021812001F0C7FC0021822001F0E8
:1037F000C3FC0021832001F0BFFC0021842001F0E4
:10380000BBFC0021852001F0B7FC1021902001F0C5
:10381000B3FC0021922001F0AFFC0121932001F0C4
:10382000ABFC3146952001F0A7FC0021972001F068
:10383000A3FC0021982001F09FFC40F273110720A7
:1038400080E341F21401E72001F096FC39460120A3
:1038500001F092FC4FF40071022001F08DFC41F266
:103860003801032001F088FC5146082001F084FC57
:103870000021092001F080FC00210A2001F07CFCDD
:1038800000210C2001F078FC00210D2001F074FCD7
:1038900000210F2001F070FC0021102001F06CFCD1
:1038A0000721112001F068FC0021122001F064FCC6
:1038B0000021132001F060FCC82002F0D1FA41F28F
:1038C0009061102001F058FC40F22721112001F0F6
:1038D00053FC322002F0C4FA0C21122001F04CFCFF
:1038E000322002F0BDFA4FF40061132001F044FCD5
:1038F0001121292001F040FC0B212B2001F03CFC80
:10390000322002F0ADFA0021202001F035FC2146E2
:10391000212001F031FC0021302001F02DFC4FF47A
:1039200083763146312001F027FC0021322001F05E
:1039300023FC5946352001F01FFC41F20A61362074
:1039400001F01AFC2946372001F016FC31463820D8
:1039500001F012FC2946392001F00EFC40F2024130
:103960003C2001F009FC40F60F413D2001F004FC31
:103970000021502001F000FCEF21512001F0FCFB60
:103980000021522001F0F8FB2146532001F0F4FB06
:103990004FF41C51602001F0EFFB0121612001F088
:1039A000EBFB00216A2001F0E7FB0021802001F001
:1039B000E3FB0021812001F0DFFB0021822001F0E8
:1039C000DBFB0021832001F0D7FB0021842001F0E4
:1039D000D3FB0021852001F0CFFB1021902001F0C6
:1039E000CBFB4FF4C0619220FEE33946012001F089
:1039F000C3FB4946022001F0BFFB41F23001032026
:103A000001F0BAFB0021042001F0B6FB40F20721CF
:103A1000082001F0B1FB0021092001F0ADFB0021DD
:103A20000A2001F0A9FB00210C2001F0A5FB0021D8
:103A30000D2001F0A1FB00210F2001F09DFB1420BF
:103A400002F00EFA41F2B061102001F095FB012165
:103A5000112001F091FB0121172001F08DFB4FF4A3
:103A60009C71122001F088FB4FF40061132001F0DB
:103A700083FB0921292001F07FFB09212A2001F085
:103A80007BFB0021A42001F077FB0021502001F0F6
:103A900073FBEF21512001F06FFB0021522001F058
:103AA0006BFB2146532001F067FB4FF41C51602053
:103AB00001F062FB0121612001F05EFB00216A2020
:103AC00001F05AFB0021802001F056FB00218120EB
:103AD00001F052FB0021822001F04EFB00218320E7
:103AE00001F04AFB0021842001F046FB00218520E3
:103AF00001F042FB1321902001F03EFB00219220B7
:103B000001F03AFB0321932001F036FB314695206A
:103B100001F032FB40F27311072001F02DFB32203F
:103B200010E10021072001F027FB322002F098F974
:103B30004FF48E71122001F01FFB0121A42001F02F
:103B40001BFB0F21082001F017FB08210A2001F0C0
:103B500013FB08210D2001F00FFBA8462946302059
:103B600001F00AFB0721312001F006FB40F203615E
:103B7000322001F001FB4D464946332001F0FCFAAA
:103B80005146342001F0F8FA0221352001F0F4FA10
:103B900041F60F71362001F0EFFA4146372001F06F
:103BA000EBFA0021382001F0E7FA0021392001F07A
:103BB000E3FA41463A2001F0DFFA00213B2001F010
:103BC000DBFA07213C2001F0D7FA00213D2001F06B
:103BD000D3FA322002F044F90121072001F0CCFA97
:103BE0000121172001F0C8FA322002F039F94FF410
:103BF000BD51102001F0C0FA40F21721112001F050
:103C0000BBFA4FF48F71122001F0B6FA4FF47061D5
:103C1000132001F0B1FA00212A2001F0ADFA0A21A7
:103C2000292001F0A9FA4FF49F71122001F0A4FAA3
:103C30000021502001F0A0FAEF21512001F09CFA60
:103C40000021522001F098FA2146532001F094FA05
:103C50004FF41C51602001F08FFA0121612001F026
:103C60008BFA00216A2001F087FA0021802001F000
:103C700083FA0021812001F07FFA0021822001F0E7
:103C80007BFA0021832001F077FA0021842004E0F0
:103C90005BE058E11FE2D2E286E301F06DFA002119
:103CA000852001F069FA1321902001F065FA314670
:103CB000922001F061FA0521932001F05DFA0021C4
:103CC000952001F059FA0021972000E0FEE301F071
:103CD00053FA0021982001F04FFA3946012001F0F3
:103CE0004BFA2946022001F047FA41F2380103203D
:103CF00001F042FA0021042001F03EFA00210C20DC
:103D000001F03AFA00210F2001F036FA00212020BC
:103D100001F032FA0021212001F02EFA21210720A2
:103D200001F02AFA142002F09BF86121072001F02B
:103D300023FA142002F094F840F27311072001F0E6
:103D40001BFA142002F08CF82DE30021084601F044
:103D500013FA0021084601F00FFA0021084601F08D
:103D60000BFA0021084601F007FA0121A42001F016
:103D700003FA142002F074F84FF41C55294600E0B1
:103D8000DCE0602001F0F8F956465146082001F0C9
:103D9000F3F94FF40571302001F0EEF943F215719B
:103DA000312001F0E9F940F20461322001F0E4F938
:103DB00040F61661332001F0DFF942F21121342080
:103DC00001F0DAF94FF4A851352001F0D5F948F2A5
:103DD0000751362001F0D0F941F20741372001F0B8
:103DE000CBF941F20341382001F0C6F920213920F6
:103DF00001F0C2F91A21902001F0BEF90021102033
:103E000001F0BAF90721112001F0B6F900211220C2
:103E100001F0B2F90021132001F0AEF9142002F0F4
:103E20001FF84FF4E661102001F0A6F940F23711B7
:103E3000112001F0A1F9142002F012F84FF4DC7106
:103E4000122001F099F9142002F00AF84FF4706181
:103E5000132001F091F980212A2001F08DF94821E9
:103E6000292001F089F9142001F0FAFF39460120D8
:103E700001F082F94946022001F07EF941F2380151
:103E8000032001F079F93146082001F075F900218D
:103E90000A2001F071F900210C2001F06DF90021D8
:103EA0000D2001F069F930210E2001F065F90021A3
:103EB000502001F061F9EF21512001F05DF900215E
:103EC000522001F059F92146532001F055F92946B5
:103ED000602001F051F90121612001F04DF900212C
:103EE0006A2001F049F91121902001F045F94FF4C1
:103EF000C061922001F040F940F20241932001F0AC
:103F00003BF90221942001F037F9142001F0A8FFB9
:103F10000121072001F030F9142001F0A1FF6121F7
:103F2000072001F029F940F27311072001F024F96C
:103F30000021202001F020F90021212001F01CF9AE
:103F4000222100202DE20021084601F015F9002170
:103F5000084601F011F9142001F082FF0021084603
:103F600001F00AF90021084601F006F9002108468F
:103F700001F002F90021084601F0FEF80121A42019
:103F800001F0FAF8142001F06BFF4FF41C5160208F
:103F900001F0F2F840F60601082001F0EDF840F2D9
:103FA00003752946302001F0E7F80121312001F0A6
:103FB000E3F80421322001F0DFF84FF4817133205F
:103FC00001F0DAF83146342001F0D6F840F203115E
:103FD000352001F0D1F81F21362001F0CDF8294617
:103FE000372001F0C9F80121382001F0C5F804217B
:103FF000392001F0C1F81521902001F0BDF84FF4EF
:104000008261102001F0B8F840F24721112001F040
:10401000B3F84FF4DE71122001F0AEF84FF4606196
:10402000132001F0A9F8782001F01AFF3946012089
:1040300001F0A2F84FF40071022001F09DF841F266
:104040003001032001F098F808210A2001F094F8CB
:1040500000210C2001F090F820210E2001F08CF8B6
:1040600000210F2001F088F80021202001F084F8C1
:104070000021212001F080F83D212A2001F07CF868
:10408000142001F0EDFE2D21292001F075F800210A
:10409000502001F071F84DF2EF01512001F06CF861
:1040A0000021522001F068F82146532001F064F805
:1040B0000021612001F060F800216A2001F05CF825
:1040C0003146922001F058F80521932001F054F870
:1040D0003946FFF7B4BB0121002001F04DF84AF644
:1040E000A401032001F048F800210C2001F044F85D
:1040F00040F60C010D2001F03FF84FF42C510E203A
:1041000001F03AF8B0211E2001F036F842F63F31B6
:10411000012001F031F84FF4C061022001F02CF8C9
:104120000021102001F028F846F27801112001F05A
:1041300023F80021052001F01FF80021062001F0DE
:104140001BF84EF61C71162001F016F803211720FB
:1041500001F012F840F23321072001F00DF80021A0
:104160000B2001F009F800210F2001F005F80021D3
:10417000412001F001F80021422000F0FDFF002164
:10418000482000F0F9FF2146492000F0F5FF00210A
:104190004A2000F0F1FF00214B2000F0EDFF4FF42A
:1041A0006F41442000F0E8FF0021452000F0E4FFCB
:1041B0002146462000F0E0FF2946302000F0DCFFD9
:1041C0005C465946312000F0D7FF2146322000F0EE
:1041D000D3FF40F202552946332000F0CDFF691D80
:1041E000342000F0C9FF00E083E12146352000F0D3
:1041F000C3FF2146362000F0BFFF2946372000F0DC
:10420000BBFF40F2023421463A2000F0B5FF2146C0
:104210003B2000F0B1FF0021232000F0ADFF002182
:10422000242000F0A9FF4FF40041252000F0A4FF56
:1042300000214F2000F0A0FF00214E20B1E001211D
:10424000002000F099FF0A2001F00AFE41F22861E7
:10425000102000F091FF0E21122000F08DFF40F69B
:104260003921132000F088FF0A2001F0F9FD4021D8
:10427000112000F081FF5021152000F07DFF0A2061
:1042800001F0EEFD1E21122000F076FF0A2001F061
:10429000E7FD4FF4B151102000F06EFF42F63921D6
:1042A000132000F069FF0A2001F0DAFD39460120F1
:1042B00000F062FF3146022000F05EFF41F238015B
:1042C000032000F059FF5146082000F055FF082157
:1042D0000A2000F051FF0021302000F04DFF40F295
:1042E0000241312000F048FF4FF48371322000F08A
:1042F00043FF40F20351332000F03EFF4FF4827140
:10430000342000F039FF40F20131352000F034FF55
:104310002946362000F030FF40F20531372000F00A
:104320002BFF4FF40271382000F026FF40F60B718E
:10433000392000F021FF0221412000F01DFF4FF441
:104340001C51602000F018FF0121612000F014FFD3
:104350004FF40471902000F00FFF4FF4857192200C
:1043600000F00AFF0421932000F006FF3946A02048
:1043700000F002FF0121072000F0FEFE21210720AE
:1043800000F0FAFE2321072000F0F6FE332107207B
:1043900000F0F2FE40F23311072000F0EDFE0021A4
:1043A000A02000F0E9FE26E23021152000F0E4FE16
:1043B00010219A2000F0E0FE2021112000F0DCFE08
:1043C00043F22841102000F0D7FE0221122000F015
:1043D000D3FE41F23801132000F0CEFE282001F078
:1043E0003FFD1221084600F0C7FE282001F038FDED
:1043F00043F22041102000F0BFFE43F238011320A9
:1044000000F0BAFE462001F02BFD0021302000F024
:10441000B3FE40F20241312000F0AEFE40F207311F
:10442000322000F0A9FE4FF44171332000F0A4FEC9
:104430000421342000F0A0FE40F20141352000F0BC
:104440009BFE2946362000F097FE40F205313720CA
:1044500000F092FE4FF4C2642146382000F08CFE3A
:104460002146392000F088FE3946012000F084FE04
:104470003146022000F080FE41F23001032000F0BE
:104480007BFE40F60801082000F076FE08210A2095
:1044900000F072FE4FF41C51602000F06DFE01210F
:1044A000612000F069FE4FF49F71902000F064FEDF
:1044B0003946922000F060FE3946932000F05CFE01
:1044C0004FF44051A02000F057FE00E016E010210C
:1044D000A32000F051FE0121072000F04DFE212114
:1044E000072000F049FE2321072000F045FE33217C
:1044F000072000F041FE40F23311EAE5E22000F02F
:1045000023FE4446C8F810704FF40075C8F81450E4
:10451000DFF8FC821D21C8F8001080266661266144
:104520002561276165610220C8F800006661266187
:104530002561276165610421C8F800106661266164
:104540002561642001F0A8FCE02000F0FDFD27615A
:1045500065614FF0010AC8F800A066612661256117
:104560000A2001F07DFCE02000F0EEFD276165618E
:104570004FF0030BC8F800B06661266125610C207E
:1045800001F06EFC012000F0DFFD0A2001F068FC64
:10459000E62000F0D9FD276165612F21C8F80010E1
:1045A00066612661256127616561FF20C8F800000A
:1045B00066612661256127616561C8F80000666152
:1045C00026612561B02000F0BFFD276165612021D3
:1045D000C8F80010666126612561276165614FF0AA
:1045E0000009C8F800906661266125612761656150
:1045F000C8F800B06661266125612761656140F2F7
:104600001F31C8F800106661266125612761656168
:10461000C8F800A06661266125612761656140F2E6
:10462000DF11C8F8001066612661256127616561A8
:10463000C8F80090666126612561B42000F084FD11
:10464000276165610420C8F8000066612661256164
:104650002761656140F21F41C8F80010666126615C
:10466000256127616561C8F8009066612661256152
:10467000276165612E21C8F80010666126612561F9
:10468000276165614146C8F8009066612661256131
:1046900027616561C8F80090666126612561276120
:1046A0006561C8F8009066612661256127616561D2
:1046B000C1F80090666126612561B62000F044FDD6
:1046C000276165610220C8F80000666126612561E6
:1046D000276165614FF40371C8F8001066612661B7
:1046E000256127616561C8F80090666126612561D2
:1046F000276165611721C8F8001066612661256190
:10470000276165611521C8F8001066612661256181
:1047100027616561C8F8009066612661256127619F
:104720006561C8F80090666126612561F02000F09F
:104730000BFD27616561C8F800B0666126612561DF
:10474000292000F001FDD02000F0FEFC276165610A
:10475000C8F80090666126612561BE2000F0F4FC77
:10476000276165610521C8F8001066612661256131
:1047700027616561FE21C8F8001066612661256128
:10478000276165614146C8F800A066612661256120
:1047900027616561C8F8009066612661256127611F
:1047A0006561C8F8009066612661256127616561D1
:1047B000C1F80090666126612561B82000F0C4FC54
:1047C00027616561C8F800B06661266125612761CF
:1047D0006561C8F800A0666126612561BA2000F015
:1047E000B3FC27616561C8F800A066612661256198
:1047F000642000F059F80020FCF7F6F90549012083
:10480000C1F8A8014FF6FF70FCF7ACF9BDE8F88FCE
:104810000C0C0140000022420346012000E05843F6
:10482000491EC9B2FBD270472DE9F047DFF85C9012
:104830004FF08830C9F8000009F104052860134ED4
:1048400000200C363060124CA815206147006761CB
:104850004FF04008C4F814800E488088A0F5094144
:10486000893902D1022001F017FB0848083000689E
:10487000C4F8108080B227614FF03331C9F80010BE
:1048800029604FF6FF713160BDE8F087000C0140F0
:1048900000100140CC00002010B500F055FCBDE830
:1048A0001040FFF7C1BF00002DE9F0478146BE2050
:1048B00000F04AFC204C4FF4807727616515656154
:1048C000DFF878800521C8F800108026666126612F
:1048D000256127616561484604F047F84FF066326C
:1048E000174B04F055F804F013F8C8F8000066619F
:1048F00026612561276165610121C8F800106661A4
:104900002661256127616561FF21C8F80010666195
:1049100026612561276165610020C8F80000666195
:104920002661256127616561C8F80000666126611E
:104930002561BDE8F0870000001001400C0C01402B
:10494000666604402DE9F04FB84C00262146A27956
:10495000898846F6040341F66317012A01D02AB17B
:104960001DE099421BD0B94202D118E0B94216D1DC
:10497000082814D2DFE800F00406080A0C0E101212
:1049800006200CE007200AE0042008E0052006E0ED
:10499000012004E0002002E0032000E00220A1F555
:1049A000134C45F2103245F21055BCF1410C07D0C2
:1049B000994205D0914203D0A94201D0B9427DD19C
:1049C000082812D2DFE800F0110406080A0C0E10C5
:1049D00080260AE0402608E0C02606E0202604E003
:1049E000602602E0A02600E0E026A94202D14FF4B2
:1049F000585000E03620914205D0A94203D0B94278
:104A000001D046F00806994201D146F0020631462F
:104A100000F0B2FBA188B9420AD0B00620886288B3
:104A200002D5904202D303E0904201D922806080F7
:104A30007F4EDFF800B24FF0000A4FF480774FF45A
:104A40000078A9427BD1608900F07EFB3761C6F80F
:104A50001480D946CBF800A0802575613561C6F871
:104A600010806089401C80B200F06EFB3761C6F890
:104A70001480C9F800A075613561C6F8108060899E
:104A8000801C80B200F060FB3761C6F8148020887B
:104A9000401E0112C9F8001075613561C6F810801A
:104AA0006089C01C80B200F04FFB3761C6F81480EB
:104AB0002078401EC1B2C9F8001000E099E075618D
:104AC0003561C6F81080A08900F03EFB3761C6F85A
:104AD0001480C9F800A075613561C6F81080A089FE
:104AE000401C80B200F030FB3761C6F81480C9F872
:104AF00000A075613561C6F81080A089801C80B265
:104B000000F022FB3761C6F814806088401E011255
:104B1000C9F8001075613561C6F81080A089C01C05
:104B200080B200F011FB3761C6F81480A078401EF7
:104B3000C1B2C9F800107561356156E0FFE7A146C2
:104B4000608900F001FB3761C6F814805D46CBF840
:104B500000A0802474613461C6F810803761C6F803
:104B60001480CBF800A074613461C6F810803761FE
:104B7000C6F81480B9F80000401E01122960746163
:104B80003461C6F810803761C6F81480C0B228605E
:104B900074613461C6F81080B9F80C0000F0D4FAE2
:104BA0003761C6F81480C5F800A074613461C6F896
:104BB00010803761C6F81480C5F800A074613461B4
:104BC000C6F810803761C6F81480B9F80200401E9C
:104BD0000112296074613461C6F810803761C6F82B
:104BE0001480C0B2286074613461C6F81080BDE8DA
:104BF000F08F082812D2DFE800F0040608110A0C32
:104C00000E1030260AE0102608E0202606E038269E
:104C100004E0282602E0182600E0082646F4805129
:104C2000BDE8F04F032000F0A7BA0000CC00002040
:104C3000001001400C0C01402DE9F34F04464FEAEF
:104C4000102900F0FF0A0198DFF83483060AC5B284
:104C5000B8F804104046DFF82CB34089A1F51342A0
:104C6000413A17D0A1F5A642103A13D04346A1F518
:104C7000D0479A791B881B1B5B1E043F45D0A1F5CA
:104C8000C857633F7ED0A1F5AA47103F7BD0012AC9
:104C90007AD06AE100F058FA4FF480705C46CBF8A5
:104CA00010004700CBF814704946DFF8DC92C9F8D1
:104CB00000104FF08008CBF81480CBF81080CBF8B0
:104CC0001070CBF81000CBF81470C9F800A0CBF826
:104CD0001480C4F810802761A948808900F034FA54
:104CE000781020616761C9F80060C4F81480C4F8C6
:104CF0001080276120616761C9F80050C4F81480F2
:104D0000C4F810802761BDE8FC8F012A00D19CB255
:104D100000F01AFA4FF480705F46CBF810004FF4A1
:104D20000078CBF81480DFF860A2210ACAF80010DE
:104D30004FF08009CBF81490CBF81090CBF810808E
:104D4000CBF81000CBF81480E1B2CAF80010CBF811
:104D50001490C7F81090C7F810808948808900F037
:104D6000F3F94FF480703861C7F81480CAF8006016
:104D7000C7F81490C7F81090C7F810803861C7F8CA
:104D8000148002E00AE0A9E0EEE0CAF80050C7F89B
:104D90001490C7F81090C7F81080B4E7002A6BD0C1
:104DA000DFF8DC8100F0D0F94FF480745846CBF87E
:104DB00010406200CBF81420734FC7F80090802198
:104DC000CBF81410CBF81010CBF81020CBF8104013
:104DD000CBF81420C7F800A0CBF81410CBF81010B3
:104DE000CBF8102004614261B8F800305B1E4FEA36
:104DF000232CC7F800C04161016102610461426176
:104E0000DBB23B604161016102615D4CA08900F051
:104E10009BF94FF480775846CBF810707900CBF8A7
:104E20001410DFF864C1CCF800608022CBF81420A5
:104E3000CBF81020CBF81010CBF81070CBF8141072
:104E4000CCF80050CBF81420CBF81020CBF8101081
:104E5000CBF81070416163885B1E1C12CCF80040D7
:104E600042610261016107614161DBB2CCF800304F
:104E700042610261016146E71FFA83F800F064F9BC
:104E80004FF480735846CBF810305900CBF814100B
:104E90003D4C002727608022CBF81420CBF810204F
:104EA000CBF81010CBF81030CBF814102760CBF8EB
:104EB0001420CBF81020CBF81010036141614FEAA9
:104EC000182727604261026101610361416108F0B6
:104ED000FF03236042610261016196E700F034F94B
:104EE0004FF480705C46CBF810004FF40078CBF89C
:104EF00014804846DFF89090C9F800008027CBF86E
:104F00001470CBF81070CBF810801D484089401CFD
:104F100080B200F019F978002061C4F81480C9F853
:104F200000A067612761C4F810801548808900F0EF
:104F30000BF978002061C4F81480C9F8006067613B
:104F40002761C4F810800E488089401C80B200F0B0
:104F5000FBF878002061C4F81480C9F8005067613C
:104F60002761C4F81080CEE69CB2214600F004F917
:104F7000B8F80C000199BDE8FC4F00F0FDB8000046
:104F8000CC000020001001400C0C01402DE9F84F2E
:104F900082461F460C468B46580700D0012000EB86
:104FA000D70079084843203AC0B202F0FF09002632
:104FB000009041E00C2F10D0102F12D0182F3ED1AE
:104FC000204909EBC90001EB80004FF00008855D26
:104FD00028060AD51C4802880BE009EB49001B494A
:104FE000F1E71B4901EB0910EFE70A9828B91648C9
:104FF000428821465046FBF7F7FE6806050E154825
:10500000641CA4B24088A04219D9A4EB0B00B8429A
:1050100009D10AF101001FFA80FA0E485C460188A6
:1050200051450CD906E008F1010000F0FF08B8F185
:10503000080FCDD3761CF6B200988642BAD3BDE8ED
:10504000F88F00004A9B000814000020E69000083A
:105050005A950008CC0000202DE9FF4F81B00027B1
:10506000DDF838B01D46924680463C46B9464FEAC8
:105070005B0627E0281B401EC1B20A20FFF7CCFBCD
:10508000BAFBF0F00A21B0FBF1F201FB120027B9E4
:10509000691E8C4201DA48B101273030C2B206FBEA
:1050A000048080B25B46CDF8009006E006FB0480E9
:1050B00080B25B462022CDF800900299FFF766FF90
:1050C000641CE4B2AC42D5D305B0BDE8F08F2DE945
:1050D000F84F044600F0FF0810190D46DDE90A7686
:1050E0001FFA80FA58191FFA80F94FF0000B11E0EF
:1050F000544502D3E819444685B24D450FD23B468C
:1051000029462046CDF800B0FFF740FF04EB5700DA
:1051100084B2761C3278A2F120005E28E8D9BDE87E
:10512000F88F000006494FF480720A614A154A61FF
:10513000044B18608020486108610A6170470000D4
:10514000001001400C0C014006494FF480724A6186
:105150004A154A61044B18608020486108610A6161
:1051600070470000001001400C0C0140014800890C
:10517000FFF7EABFCC00002010B50C46FFF7E4FFB4
:1051800006484FF4807101614215426104490C6088
:10519000802141610161026110BD000000100140E9
:1051A0000C0C014038B50121242000F075F84FF4B3
:1051B0008074ADF8004010208DF8030003200C4DE2
:1051C0008DF8020069462846FBF778FB2146284601
:1051D000FBF7F7FB0420074CADF8000069462046BA
:1051E000FBF76CFB04212046FBF7EBFB38BD00000E
:1051F0000008014000140140FEE7704730B50F235E
:10520000C27801780125F2B1144A126801F1E02157
:1052100002F4E062C2F5E062120AC2F10404D34073
:105220004278A24084781C401443220181F8002473
:10523000007800F01F018D404009800000F1E0205F
:10524000C0F8005130BD01F01F00854048098000C2
:1052500000F1E020C0F8805130BD00000CED00E00E
:105260000249084302490860704700000000FA053F
:105270000CED00E0014908627047000000000E429A
:10528000044A0029D16901D0014300E08143D16182
:105290007047000000100240044A0029916901D0C3
:1052A000014300E08143916170470000001002401B
:1052B00001490860704700004004424230B5204A6E
:1052C0005168204B11F00C0103D0042901D00829AA
:1052D00001D0036012E05168536801F470114FF07F
:1052E000020413F4803F04EB914102D053689B0306
:1052F00001D5154B00E0134B5943016051680F2352
:1053000003EA1111114B5C5C0168E1404160546893
:10531000072505EA14241C5D21FA04F4846054680E
:1053200005EAD4241B5DD940C1605268032303EA17
:105330009232064B1B1F9A5CB1FBF2F1016130BD4A
:105340000010024000127A0000093D0048000020D1
:10535000034600205909094A01290AD002290AD026
:10536000516A03F01F02012393400B4200D0012039
:1053700070471168F5E7116AF3E70000001002407A
:105380000649002281F8202081F82020012802D03F
:10539000042802D1052081F8200070470010024047
:1053A00001490860704700003C04424202490A6A11
:1053B00002430A62704700000010024002490A8856
:1053C00082430A8070470000042800400248018898
:1053D00041F0100101807047042800400248018814
:1053E00021F0100101807047042800402DE9F047AA
:1053F00000F06AF8DFF8C0800546B0FBF8F32F48EC
:105400002F4E018899422FD0038040F2B2744FF49E
:10541000B7774FF4B6790FE02046FBF78FFB38B132
:10542000BB4202D3A3F5B77304E0641CA4B205E049
:10543000A3F26D13641CA4B24B45EDD8B4800024D4
:10544000204F0BE0B088FBF779FB08B1012C2ED080
:10545000385D984204D81B1A641CA4B21C2BF1D2EC
:10546000641CB4715B1CF371B5FBF8F108FB1150BF
:105470004FF46161B0FBF1F23270B0FBF1F201FB6D
:1054800012033C22B3FBF2F37370B0FBF1F301FBA8
:105490001300B0FBF2F102FB1100B070F279B179A8
:1054A000B08800F02BF830720020BDE8F0871D2B8B
:1054B000D6D31D3BD0E7000080510100180000202A
:1054C000DA000020B2A80008034800880249091F3A
:1054D000098840EA014070471C28004006490988B5
:1054E000C2B21140044A121F1288024202D009B10E
:1054F00001207047002070470428004030B5642325
:10550000B0FBF3F4B0FBF3F5E4B203FB1500132C8E
:1055100001D96430C0B200EB90030724B3FBF4F56B
:1055200004FB1533084D1A440D44800715F8015C3F
:105530002A4492B203D1032901D2521E92B2B2FB85
:10554000F4F004FB102030BDA6A8000810B501201F
:10555000FFF7C4FF08B1FFF749FF0220FFF7BEFFC6
:1055600010B10220FFF72AFF0520FFF727FFBDE853
:10557000104000F0FFB80000044A0029118801D053
:10558000014300E081431180704700000028004083
:105590007CB5002401214FF0C050FFF771FE0120BF
:1055A000FFF768FE0420FBF777F945F25006002567
:1055B000B0423DD0FBF766F90120FFF7E1FE04E0C1
:1055C000641CE4B20A2000F04BFC4120FFF7C0FE4F
:1055D0000028F5D0FA2C01D301207CBD4FF4807057
:1055E000FFF7E4FE0120FFF7DBFE00F0C3F800F058
:1055F000C9F801210846FFF7BFFF00F0BBF8FFF72D
:10560000E5FE47F6FF7000F0A5F800F0B3F837208C
:10561000CDE900500A2302220C2140F2D97000F09B
:1056200021F8FFF7DBFE31460420FBF73DF907E0E8
:1056300000F0A8F801210846FFF79EFF00F09AF855
:1056400003208DF800008DF801508DF802500120E4
:105650008DF803006846FFF7D1FDFFF7C7FE002075
:105660007CBD00002DE9F05F9A4605460023A0F2BC
:10567000B270DDF828B091468846822802D3012016
:10568000BDE8F09F40F2B274264E274F08E0204656
:10569000FBF754FA08B1334400E03B44641CA4B265
:1056A000AC42F4D3A8F10100C6B200241F4FDFF8CA
:1056B00080800EE0385D40F2A321484303EBC01325
:1056C0002846FBF73BFA10B1012C00D14344641C7F
:1056D000A4B2B442EED340F2A32109FB01F0144975
:1056E00003EBC01049420144CAEB4A12C2EB0A2044
:1056F00001EB0011CBEB0B1001EB80000B99441870
:1057000001214FF0C050FFF7BBFD0120FFF7B2FDB4
:10571000204600F00FF800F02DF8FFF767FE00209C
:10572000AEE700000085E2018033E101B2A8000885
:105730008051010000B50246FFF748FE0449100CF5
:105740000880081D02805DF804EBFFF747BE0000EB
:105750001828004000B50246FFF738FE0449C2F39E
:1057600003400880081D02805DF804EBFFF736BE99
:1057700008280040024801888906FCD570470000CF
:10578000042800400448018821F0080101800188B4
:105790000907FCD57047000004280040400000F0D5
:1057A0007BBB000070B500F091F900F0B1F90B4C33
:1057B0004FF480512046FBF702F9E51429462046B4
:1057C000FBF7FFF80A20FFF7E9FF29462046FBF721
:1057D000F6F8BDE870400A20FFF7E0BF0010014076
:1057E00070B500F073F900F093F90B4C4FF4805151
:1057F0002046FBF7E6F8E51429462046FBF7E1F8DA
:105800000A20FFF7CBFF29462046FBF7D8F8BDE872
:1058100070400A20FFF7C2BF001001402DE9F0419F
:10582000002400F053F900F073F9164F4FF480563E
:1058300031463846FBF7C5F800F05AF9B046002566
:105840003E46FF146006040E39463046FBF7B9F8B1
:1058500041463046FBF7ACF8012801D144F0010481
:1058600039463046FBF7ABF86D1CEDB2082DE9D395
:1058700000F04EF941463046FBF7A3F82046BDE85C
:10588000F08100000010014070B500F01FF900F039
:105890003FF90E4D4FF4805421462846FBF791F80E
:1058A000661031462846FBF78CF821462846FBF760
:1058B00086F81E20FFF772FF31462846FBF77FF877
:1058C000BDE870401E20FFF769BF000000100140D6
:1058D00070B500F0FBF800F01BF90E4D4FF480544A
:1058E00021462846FBF76BF8661031462846FBF741
:1058F00066F831462846FBF764F81E20FFF74EFF96
:1059000021462846FBF75DF8BDE870401E20FFF7F2
:1059100045BF0000001001402DE9F041054600F0B0
:10592000D5F800F0F5F81F4E00244FF48058F71416
:1059300028064146304602D5FBF743F801E0FBF765
:105940003EF839463046FBF73CF80A20FFF726FFC1
:1059500039463046FBF733F80A20FFF71FFF680689
:10596000641C050EE4B2082CE2D300F0C1F83946FD
:105970003046FBF726F8454641463046FBF718F817
:1059800001280DD0002439463046FBF718F800F006
:10599000BFF829463046FBF714F82046BDE8F081F1
:1059A0000124F0E70010014038B54FF4C050ADF8C5
:1059B000000014208DF8030003200A4C8DF802002B
:1059C00069462046FAF77AFFE1142046FAF7F9FF14
:1059D000A1142046FAF7F5FF5020FFF7DFFE00F094
:1059E000A9F838BD0010014070B5FFF74DFF8020C9
:1059F000FFF792FFF520FFF78FFF0A2000F030FA43
:105A0000FFF742FF8120FFF787FF0128F5D0FFF75E
:105A100005FF0546FFF7C6FEFFF700FF0446FFF748
:105A2000DFFEFFF755FF44EA052020F0030002F0F7
:105A30009CFF064A064B02F0ABFF0022054B03F029
:105A4000A5F8BDE8704002F089BE00007644CF772B
:105A500001405F3F0000184070B5FFF715FF802040
:105A6000FFF75AFFF320FFF757FF0A2000F0F8F97D
:105A7000FFF70AFF8120FFF74FFF0128F5D0FFF75E
:105A8000CDFE0546FFF78EFEFFF7C8FE0446FFF782
:105A9000A7FEFFF71DFF44EA052020F0030002F0F7
:105AA00064FF064A064B02F073FF064A064B03F0FA
:105AB0006DF8BDE8704002F051BE0000619FC6DE87
:105AC00007F7653FCDCCCCCCCC6C474008B54FF444
:105AD0000060ADF8000010208DF8030003208DF861
